:020000020000FC
:0200000032C00C
:0200040018954D
:02000800189549
:02000C00189545
:02001000189541
:0200140018953D
:02001800189539
:02001C00189535
:02002000189531
:0200240018952D
:02002800189529
:02002C00189525
:02003000189521
:0200340018951D
:02003800189519
:02003C00189515
:02004000189511
:0200440018950D
:02004800189509
:02004C00189505
:02005000189501
:020054001895FD
:020058001895F9
:02005C001895F5
:020060001895F1
:1000640018950FEF0DBF08E00EBFE0E0F1E00027A8
:100074000193F930E9F7E030D9F7EE27FF270024A0
:1000840011242224332444245524662477248824E8
:100094009924AA24BB24CC24DD24EE24FF240027A5
:1000A40011272227332744275527662777278827B0
:1000B4009927AA27BB27CC27DD270EE10AB9017EA1
:1000C4000BB9007F07B90C7F04B9037C04B90F7323
:1000D4000AB90FE10093C40000E00093C5000000DA
:0E00E400000000000000000000000C947300FB
:00000001FF
